{
  "_format": "hh3-artifact-1",
  "contractName": "BirthLedger",
  "sourceName": "contracts/BirthLedger.sol",
  "abi": [
    {
      "anonymous": false,
      "inputs": [
        {
          "indexed": false,
          "internalType": "string",
          "name": "motherId",
          "type": "string"
        },
        {
          "indexed": false,
          "internalType": "string",
          "name": "childId",
          "type": "string"
        },
        {
          "indexed": false,
          "internalType": "string",
          "name": "eventType",
          "type": "string"
        },
        {
          "indexed": false,
          "internalType": "uint256",
          "name": "timestamp",
          "type": "uint256"
        }
      ],
      "name": "EventRecorded",
      "type": "event"
    },
    {
      "inputs": [
        {
          "internalType": "uint256",
          "name": "",
          "type": "uint256"
        }
      ],
      "name": "events",
      "outputs": [
        {
          "internalType": "string",
          "name": "motherId",
          "type": "string"
        },
        {
          "internalType": "string",
          "name": "childId",
          "type": "string"
        },
        {
          "internalType": "string",
          "name": "eventType",
          "type": "string"
        },
        {
          "internalType": "uint256",
          "name": "timestamp",
          "type": "uint256"
        }
      ],
      "stateMutability": "view",
      "type": "function"
    },
    {
      "inputs": [],
      "name": "getEventCount",
      "outputs": [
        {
          "internalType": "uint256",
          "name": "",
          "type": "uint256"
        }
      ],
      "stateMutability": "view",
      "type": "function"
    },
    {
      "inputs": [
        {
          "internalType": "string",
          "name": "motherId",
          "type": "string"
        },
        {
          "internalType": "string",
          "name": "childId",
          "type": "string"
        },
        {
          "internalType": "string",
          "name": "eventType",
          "type": "string"
        }
      ],
      "name": "recordEvent",
      "outputs": [],
      "stateMutability": "nonpayable",
      "type": "function"
    }
  ],
  "bytecode": "0x6080604052348015600e575f5ffd5b5061066c8061001c5f395ff3fe608060405234801561000f575f5ffd5b506004361061003f575f3560e01c80630b791430146100435780638bb97bc41461006f578063d9e48f5c14610084575b5f5ffd5b61005661005136600461033b565b610094565b6040516100669493929190610380565b60405180910390f35b61008261007d366004610469565b610260565b005b5f54604051908152602001610066565b5f81815481106100a2575f80fd5b905f5260205f2090600402015f91509050805f0180546100c1906104f7565b80601f01602080910402602001604051908101604052809291908181526020018280546100ed906104f7565b80156101385780601f1061010f57610100808354040283529160200191610138565b820191905f5260205f20905b81548152906001019060200180831161011b57829003601f168201915b50505050509080600101805461014d906104f7565b80601f0160208091040260200160405190810160405280929190818152602001828054610179906104f7565b80156101c45780601f1061019b576101008083540402835291602001916101c4565b820191905f5260205f20905b8154815290600101906020018083116101a757829003601f168201915b5050505050908060020180546101d9906104f7565b80601f0160208091040260200160405190810160405280929190818152602001828054610205906104f7565b80156102505780601f1061022757610100808354040283529160200191610250565b820191905f5260205f20905b81548152906001019060200180831161023357829003601f168201915b5050505050908060030154905084565b60408051608081018252848152602081018490529081018290524260608201525f8054600181018255908052815160049091027f290decd9548b62a8d60345a988386fc84ba6bc95484008f6362f93160ef3e563019081906102c2908261057b565b50602082015160018201906102d7908261057b565b50604082015160028201906102ec908261057b565b506060820151816003015550507f83e7badfbaec656630d687b7309a4776f50ba42c105715d3f61e6e09e2e6777e8383834260405161032e9493929190610380565b60405180910390a1505050565b5f6020828403121561034b575f5ffd5b5035919050565b5f81518084528060208401602086015e5f602082860101526020601f19601f83011685010191505092915050565b608081525f6103926080830187610352565b82810360208401526103a48187610352565b905082810360408401526103b88186610352565b91505082606083015295945050505050565b634e487b7160e01b5f52604160045260245ffd5b5f82601f8301126103ed575f5ffd5b813567ffffffffffffffff811115610407576104076103ca565b604051601f8201601f19908116603f0116810167ffffffffffffffff81118282101715610436576104366103ca565b60405281815283820160200185101561044d575f5ffd5b816020850160208301375f918101602001919091529392505050565b5f5f5f6060848603121561047b575f5ffd5b833567ffffffffffffffff811115610491575f5ffd5b61049d868287016103de565b935050602084013567ffffffffffffffff8111156104b9575f5ffd5b6104c5868287016103de565b925050604084013567ffffffffffffffff8111156104e1575f5ffd5b6104ed868287016103de565b9150509250925092565b600181811c9082168061050b57607f821691505b60208210810361052957634e487b7160e01b5f52602260045260245ffd5b50919050565b601f82111561057657805f5260205f20601f840160051c810160208510156105545750805b601f840160051c820191505b81811015610573575f8155600101610560565b50505b505050565b815167ffffffffffffffff811115610595576105956103ca565b6105a9816105a384546104f7565b8461052f565b6020601f8211600181146105db575f83156105c45750848201515b5f19600385901b1c1916600184901b178455610573565b5f84815260208120601f198516915b8281101561060a57878501518255602094850194600190920191016105ea565b508482101561062757868401515f19600387901b60f8161c191681555b50505050600190811b0190555056fea2646970667358221220ff5e59b47087458cd6fa8cddbe33cf1142d22acbfbf4466928d062c8fcfe3cb864736f6c634300081c0033",
  "linkReferences": {},
  "deployedLinkReferences": {},
  "immutableReferences": {},
  "inputSourceName": "project/contracts/BirthLedger.sol",
  "buildInfoId": "solc-0_8_28-f8981cee09df5c217f26606d2a8bcba3ab82771f"
}